:100000000C943E000C9448000C9448000C9448005A
:100010000C9448000C9448000C9448000C94480040
:100020000C9448000C9448000C9448000C94480030
:100030000C9448000C9448000C9448000C94480020
:100040000C9448000C9448000C9448000C94480010
:100050000C9448000C9448000C9448000C94480000
:100060000C9448000C9448004D005E00630067004B
:100070006B006F007300770056005A0011241FBEFA
:10008000CFEFD8E0DEBFCDBF0E947C000C9499007A
:100090000C9400008A30910520F081E085B91BB8EE
:1000A0000895FC01EC5CFF4F0C94930015B880E2BE
:1000B0008BB9089515B884E28BB9089581E085B9AC
:1000C00084E08BB9089515B888E08BB9089515B808
:1000D0008CE08BB9089515B880E18BB9089515B8F7
:1000E00084E18BB9089515B888E18BB9089581E052
:1000F00085B98CE18BB908958AB18C638AB9209A4D
:10010000C0E0D0E0CE010E944A002FEF83ED90E3E3
:10011000215080409040E1F700C000002196CA3095
:10012000D10581F7EDCFEE0FFF1F0590F491E02D83
:060130000994F894FFCFD2
:00000001FF
